{
  "address": "0x49c0Cca0DBA1ab16ef57C81338e5E98bC9856E78",
  "abi": [
    {
      "inputs": [
        {
          "internalType": "uint256",
          "name": "blockTimestamp",
          "type": "uint256"
        }
      ],
      "name": "BlockTimestampIsTooBig",
      "type": "error"
    },
    {
      "inputs": [],
      "name": "CalldataMustHaveValidPayload",
      "type": "error"
    },
    {
      "inputs": [],
      "name": "CalldataOverOrUnderFlow",
      "type": "error"
    },
    {
      "inputs": [],
      "name": "CanNotPickMedianOfEmptyArray",
      "type": "error"
    },
    {
      "inputs": [],
      "name": "CannotUpdateMoreThanOneDataFeed",
      "type": "error"
    },
    {
      "inputs": [
        {
          "internalType": "bytes32",
          "name": "dataFeedId",
          "type": "bytes32"
        }
      ],
      "name": "DataFeedIdNotFound",
      "type": "error"
    },
    {
      "inputs": [
        {
          "internalType": "bytes32",
          "name": "dataFeedId",
          "type": "bytes32"
        }
      ],
      "name": "DataFeedValueCannotBeZero",
      "type": "error"
    },
    {
      "inputs": [
        {
          "internalType": "uint256",
          "name": "expectedDataTimestamp",
          "type": "uint256"
        },
        {
          "internalType": "uint256",
          "name": "dataPackageTimestamp",
          "type": "uint256"
        }
      ],
      "name": "DataPackageTimestampMismatch",
      "type": "error"
    },
    {
      "inputs": [],
      "name": "DataPackageTimestampMustNotBeZero",
      "type": "error"
    },
    {
      "inputs": [],
      "name": "DataPackageTimestampsMustBeEqual",
      "type": "error"
    },
    {
      "inputs": [
        {
          "internalType": "uint256",
          "name": "dataTimestamp",
          "type": "uint256"
        }
      ],
      "name": "DataTimestampIsTooBig",
      "type": "error"
    },
    {
      "inputs": [
        {
          "internalType": "uint256",
          "name": "receivedDataTimestampMilliseconds",
          "type": "uint256"
        },
        {
          "internalType": "uint256",
          "name": "lastDataTimestampMilliseconds",
          "type": "uint256"
        }
      ],
      "name": "DataTimestampShouldBeNewerThanBefore",
      "type": "error"
    },
    {
      "inputs": [],
      "name": "EachSignerMustProvideTheSameValue",
      "type": "error"
    },
    {
      "inputs": [],
      "name": "EmptyCalldataPointersArr",
      "type": "error"
    },
    {
      "inputs": [],
      "name": "GetDataServiceIdNotImplemented",
      "type": "error"
    },
    {
      "inputs": [],
      "name": "IncorrectUnsignedMetadataSize",
      "type": "error"
    },
    {
      "inputs": [
        {
          "internalType": "uint256",
          "name": "receivedSignersCount",
          "type": "uint256"
        },
        {
          "internalType": "uint256",
          "name": "requiredSignersCount",
          "type": "uint256"
        }
      ],
      "name": "InsufficientNumberOfUniqueSigners",
      "type": "error"
    },
    {
      "inputs": [],
      "name": "InvalidCalldataPointer",
      "type": "error"
    },
    {
      "inputs": [
        {
          "internalType": "uint256",
          "name": "currentBlockTimestamp",
          "type": "uint256"
        },
        {
          "internalType": "uint256",
          "name": "lastUpdateTimestamp",
          "type": "uint256"
        },
        {
          "internalType": "uint256",
          "name": "minIntervalBetweenUpdates",
          "type": "uint256"
        }
      ],
      "name": "MinIntervalBetweenUpdatesHasNotPassedYet",
      "type": "error"
    },
    {
      "inputs": [],
      "name": "RedstonePayloadMustHaveAtLeastOneDataPackage",
      "type": "error"
    },
    {
      "inputs": [
        {
          "internalType": "uint256",
          "name": "roundId",
          "type": "uint256"
        }
      ],
      "name": "RoundNotFound",
      "type": "error"
    },
    {
      "inputs": [
        {
          "internalType": "address",
          "name": "receivedSigner",
          "type": "address"
        }
      ],
      "name": "SignerNotAuthorised",
      "type": "error"
    },
    {
      "inputs": [
        {
          "internalType": "uint256",
          "name": "receivedTimestampSeconds",
          "type": "uint256"
        },
        {
          "internalType": "uint256",
          "name": "blockTimestamp",
          "type": "uint256"
        }
      ],
      "name": "TimestampFromTooLongFuture",
      "type": "error"
    },
    {
      "inputs": [
        {
          "internalType": "uint256",
          "name": "receivedTimestampSeconds",
          "type": "uint256"
        },
        {
          "internalType": "uint256",
          "name": "blockTimestamp",
          "type": "uint256"
        }
      ],
      "name": "TimestampIsTooOld",
      "type": "error"
    },
    {
      "inputs": [
        {
          "internalType": "uint256",
          "name": "value",
          "type": "uint256"
        }
      ],
      "name": "UnsafeUint256ToUint80Conversion",
      "type": "error"
    },
    {
      "inputs": [
        {
          "internalType": "uint256",
          "name": "value",
          "type": "uint256"
        }
      ],
      "name": "UnsafeUintToIntConversion",
      "type": "error"
    },
    {
      "inputs": [
        {
          "internalType": "address",
          "name": "signer",
          "type": "address"
        }
      ],
      "name": "UpdaterNotAuthorised",
      "type": "error"
    },
    {
      "anonymous": false,
      "inputs": [
        {
          "indexed": true,
          "internalType": "int256",
          "name": "current",
          "type": "int256"
        },
        {
          "indexed": true,
          "internalType": "uint256",
          "name": "roundId",
          "type": "uint256"
        },
        {
          "indexed": false,
          "internalType": "uint256",
          "name": "updatedAt",
          "type": "uint256"
        }
      ],
      "name": "AnswerUpdated",
      "type": "event"
    },
    {
      "anonymous": false,
      "inputs": [
        {
          "indexed": false,
          "internalType": "uint8",
          "name": "version",
          "type": "uint8"
        }
      ],
      "name": "Initialized",
      "type": "event"
    },
    {
      "inputs": [
        {
          "internalType": "uint256[]",
          "name": "values",
          "type": "uint256[]"
        }
      ],
      "name": "aggregateValues",
      "outputs": [
        {
          "internalType": "uint256",
          "name": "",
          "type": "uint256"
        }
      ],
      "stateMutability": "view",
      "type": "function"
    },
    {
      "inputs": [],
      "name": "aggregator",
      "outputs": [
        {
          "internalType": "address",
          "name": "",
          "type": "address"
        }
      ],
      "stateMutability": "view",
      "type": "function"
    },
    {
      "inputs": [],
      "name": "decimals",
      "outputs": [
        {
          "internalType": "uint8",
          "name": "",
          "type": "uint8"
        }
      ],
      "stateMutability": "pure",
      "type": "function"
    },
    {
      "inputs": [],
      "name": "description",
      "outputs": [
        {
          "internalType": "string",
          "name": "",
          "type": "string"
        }
      ],
      "stateMutability": "view",
      "type": "function"
    },
    {
      "inputs": [],
      "name": "extractTimestampsAndAssertAllAreEqual",
      "outputs": [
        {
          "internalType": "uint256",
          "name": "extractedTimestamp",
          "type": "uint256"
        }
      ],
      "stateMutability": "pure",
      "type": "function"
    },
    {
      "inputs": [],
      "name": "getAllowedTimestampDiffsInSeconds",
      "outputs": [
        {
          "internalType": "uint256",
          "name": "maxDataAheadSeconds",
          "type": "uint256"
        },
        {
          "internalType": "uint256",
          "name": "maxDataDelaySeconds",
          "type": "uint256"
        }
      ],
      "stateMutability": "view",
      "type": "function"
    },
    {
      "inputs": [
        {
          "internalType": "address",
          "name": "signerAddress",
          "type": "address"
        }
      ],
      "name": "getAuthorisedSignerIndex",
      "outputs": [
        {
          "internalType": "uint8",
          "name": "",
          "type": "uint8"
        }
      ],
      "stateMutability": "view",
      "type": "function"
    },
    {
      "inputs": [],
      "name": "getBlockTimestamp",
      "outputs": [
        {
          "internalType": "uint256",
          "name": "",
          "type": "uint256"
        }
      ],
      "stateMutability": "view",
      "type": "function"
    },
    {
      "inputs": [],
      "name": "getBlockTimestampFromLatestUpdate",
      "outputs": [
        {
          "internalType": "uint256",
          "name": "blockTimestamp",
          "type": "uint256"
        }
      ],
      "stateMutability": "view",
      "type": "function"
    },
    {
      "inputs": [],
      "name": "getDataFeedId",
      "outputs": [
        {
          "internalType": "bytes32",
          "name": "",
          "type": "bytes32"
        }
      ],
      "stateMutability": "pure",
      "type": "function"
    },
    {
      "inputs": [],
      "name": "getDataFeedIds",
      "outputs": [
        {
          "internalType": "bytes32[]",
          "name": "dataFeedIds",
          "type": "bytes32[]"
        }
      ],
      "stateMutability": "view",
      "type": "function"
    },
    {
      "inputs": [
        {
          "internalType": "bytes32",
          "name": "dataFeedId",
          "type": "bytes32"
        }
      ],
      "name": "getDataFeedIndex",
      "outputs": [
        {
          "internalType": "uint256",
          "name": "",
          "type": "uint256"
        }
      ],
      "stateMutability": "view",
      "type": "function"
    },
    {
      "inputs": [],
      "name": "getDataServiceId",
      "outputs": [
        {
          "internalType": "string",
          "name": "",
          "type": "string"
        }
      ],
      "stateMutability": "pure",
      "type": "function"
    },
    {
      "inputs": [],
      "name": "getDataTimestampFromLatestUpdate",
      "outputs": [
        {
          "internalType": "uint256",
          "name": "lastDataTimestamp",
          "type": "uint256"
        }
      ],
      "stateMutability": "view",
      "type": "function"
    },
    {
      "inputs": [],
      "name": "getLatestRoundId",
      "outputs": [
        {
          "internalType": "uint256",
          "name": "latestRoundId",
          "type": "uint256"
        }
      ],
      "stateMutability": "view",
      "type": "function"
    },
    {
      "inputs": [],
      "name": "getLatestRoundParams",
      "outputs": [
        {
          "internalType": "uint256",
          "name": "latestRoundId",
          "type": "uint256"
        },
        {
          "internalType": "uint128",
          "name": "latestRoundDataTimestamp",
          "type": "uint128"
        },
        {
          "internalType": "uint128",
          "name": "latestRoundBlockTimestamp",
          "type": "uint128"
        }
      ],
      "stateMutability": "view",
      "type": "function"
    },
    {
      "inputs": [],
      "name": "getMinIntervalBetweenUpdates",
      "outputs": [
        {
          "internalType": "uint256",
          "name": "",
          "type": "uint256"
        }
      ],
      "stateMutability": "view",
      "type": "function"
    },
    {
      "inputs": [
        {
          "internalType": "uint256",
          "name": "roundId",
          "type": "uint256"
        }
      ],
      "name": "getPackedTimestampsForRound",
      "outputs": [
        {
          "internalType": "uint256",
          "name": "roundTimestamps",
          "type": "uint256"
        }
      ],
      "stateMutability": "view",
      "type": "function"
    },
    {
      "inputs": [],
      "name": "getPackedTimestampsFromLatestUpdate",
      "outputs": [
        {
          "internalType": "uint256",
          "name": "packedTimestamps",
          "type": "uint256"
        }
      ],
      "stateMutability": "view",
      "type": "function"
    },
    {
      "inputs": [],
      "name": "getPriceFeedAdapter",
      "outputs": [
        {
          "internalType": "contract IRedstoneAdapter",
          "name": "",
          "type": "address"
        }
      ],
      "stateMutability": "view",
      "type": "function"
    },
    {
      "inputs": [],
      "name": "getPriceFeedAdapterWithRounds",
      "outputs": [
        {
          "internalType": "contract PriceFeedsAdapterWithRounds",
          "name": "",
          "type": "address"
        }
      ],
      "stateMutability": "view",
      "type": "function"
    },
    {
      "inputs": [
        {
          "internalType": "uint80",
          "name": "requestedRoundId",
          "type": "uint80"
        }
      ],
      "name": "getRoundData",
      "outputs": [
        {
          "internalType": "uint80",
          "name": "roundId",
          "type": "uint80"
        },
        {
          "internalType": "int256",
          "name": "answer",
          "type": "int256"
        },
        {
          "internalType": "uint256",
          "name": "startedAt",
          "type": "uint256"
        },
        {
          "internalType": "uint256",
          "name": "updatedAt",
          "type": "uint256"
        },
        {
          "internalType": "uint80",
          "name": "answeredInRound",
          "type": "uint80"
        }
      ],
      "stateMutability": "view",
      "type": "function"
    },
    {
      "inputs": [
        {
          "internalType": "bytes32",
          "name": "dataFeedId",
          "type": "bytes32"
        },
        {
          "internalType": "uint256",
          "name": "roundId",
          "type": "uint256"
        }
      ],
      "name": "getRoundDataFromAdapter",
      "outputs": [
        {
          "internalType": "uint256",
          "name": "dataFeedValue",
          "type": "uint256"
        },
        {
          "internalType": "uint128",
          "name": "roundDataTimestamp",
          "type": "uint128"
        },
        {
          "internalType": "uint128",
          "name": "roundBlockTimestamp",
          "type": "uint128"
        }
      ],
      "stateMutability": "view",
      "type": "function"
    },
    {
      "inputs": [],
      "name": "getTimestampsFromLatestUpdate",
      "outputs": [
        {
          "internalType": "uint128",
          "name": "dataTimestamp",
          "type": "uint128"
        },
        {
          "internalType": "uint128",
          "name": "blockTimestamp",
          "type": "uint128"
        }
      ],
      "stateMutability": "view",
      "type": "function"
    },
    {
      "inputs": [],
      "name": "getUniqueSignersThreshold",
      "outputs": [
        {
          "internalType": "uint8",
          "name": "",
          "type": "uint8"
        }
      ],
      "stateMutability": "pure",
      "type": "function"
    },
    {
      "inputs": [
        {
          "internalType": "bytes32",
          "name": "dataFeedId",
          "type": "bytes32"
        }
      ],
      "name": "getValueForDataFeed",
      "outputs": [
        {
          "internalType": "uint256",
          "name": "",
          "type": "uint256"
        }
      ],
      "stateMutability": "view",
      "type": "function"
    },
    {
      "inputs": [
        {
          "internalType": "bytes32",
          "name": "dataFeedId",
          "type": "bytes32"
        },
        {
          "internalType": "uint256",
          "name": "roundId",
          "type": "uint256"
        }
      ],
      "name": "getValueForDataFeedAndRound",
      "outputs": [
        {
          "internalType": "uint256",
          "name": "dataFeedValue",
          "type": "uint256"
        }
      ],
      "stateMutability": "view",
      "type": "function"
    },
    {
      "inputs": [
        {
          "internalType": "bytes32",
          "name": "dataFeedId",
          "type": "bytes32"
        }
      ],
      "name": "getValueForDataFeedUnsafe",
      "outputs": [
        {
          "internalType": "uint256",
          "name": "dataFeedValue",
          "type": "uint256"
        }
      ],
      "stateMutability": "view",
      "type": "function"
    },
    {
      "inputs": [
        {
          "internalType": "bytes32[]",
          "name": "dataFeedIds",
          "type": "bytes32[]"
        }
      ],
      "name": "getValuesForDataFeeds",
      "outputs": [
        {
          "internalType": "uint256[]",
          "name": "",
          "type": "uint256[]"
        }
      ],
      "stateMutability": "view",
      "type": "function"
    },
    {
      "inputs": [
        {
          "internalType": "bytes32[]",
          "name": "requestedDataFeedIds",
          "type": "bytes32[]"
        }
      ],
      "name": "getValuesForDataFeedsUnsafe",
      "outputs": [
        {
          "internalType": "uint256[]",
          "name": "values",
          "type": "uint256[]"
        }
      ],
      "stateMutability": "view",
      "type": "function"
    },
    {
      "inputs": [],
      "name": "initialize",
      "outputs": [],
      "stateMutability": "nonpayable",
      "type": "function"
    },
    {
      "inputs": [],
      "name": "latestAnswer",
      "outputs": [
        {
          "internalType": "int256",
          "name": "",
          "type": "int256"
        }
      ],
      "stateMutability": "view",
      "type": "function"
    },
    {
      "inputs": [],
      "name": "latestRound",
      "outputs": [
        {
          "internalType": "uint80",
          "name": "",
          "type": "uint80"
        }
      ],
      "stateMutability": "view",
      "type": "function"
    },
    {
      "inputs": [],
      "name": "latestRoundData",
      "outputs": [
        {
          "internalType": "uint80",
          "name": "roundId",
          "type": "uint80"
        },
        {
          "internalType": "int256",
          "name": "answer",
          "type": "int256"
        },
        {
          "internalType": "uint256",
          "name": "startedAt",
          "type": "uint256"
        },
        {
          "internalType": "uint256",
          "name": "updatedAt",
          "type": "uint256"
        },
        {
          "internalType": "uint80",
          "name": "answeredInRound",
          "type": "uint80"
        }
      ],
      "stateMutability": "view",
      "type": "function"
    },
    {
      "inputs": [
        {
          "internalType": "address",
          "name": "updater",
          "type": "address"
        }
      ],
      "name": "requireAuthorisedUpdater",
      "outputs": [],
      "stateMutability": "view",
      "type": "function"
    },
    {
      "inputs": [
        {
          "internalType": "uint256",
          "name": "dataPackagesTimestamp",
          "type": "uint256"
        }
      ],
      "name": "updateDataFeedsValues",
      "outputs": [],
      "stateMutability": "nonpayable",
      "type": "function"
    },
    {
      "inputs": [
        {
          "internalType": "bytes32",
          "name": "dataFeedId",
          "type": "bytes32"
        },
        {
          "internalType": "uint256",
          "name": "valueForDataFeed",
          "type": "uint256"
        }
      ],
      "name": "validateDataFeedValueOnRead",
      "outputs": [],
      "stateMutability": "view",
      "type": "function"
    },
    {
      "inputs": [
        {
          "internalType": "bytes32",
          "name": "dataFeedId",
          "type": "bytes32"
        },
        {
          "internalType": "uint256",
          "name": "valueForDataFeed",
          "type": "uint256"
        }
      ],
      "name": "validateDataFeedValueOnWrite",
      "outputs": [],
      "stateMutability": "view",
      "type": "function"
    },
    {
      "inputs": [
        {
          "internalType": "uint256",
          "name": "dataPackagesTimestamp",
          "type": "uint256"
        }
      ],
      "name": "validateDataPackagesTimestampOnce",
      "outputs": [],
      "stateMutability": "view",
      "type": "function"
    },
    {
      "inputs": [
        {
          "internalType": "uint256",
          "name": "dataPackagesTimestamp",
          "type": "uint256"
        }
      ],
      "name": "validateProposedDataPackagesTimestamp",
      "outputs": [],
      "stateMutability": "view",
      "type": "function"
    },
    {
      "inputs": [
        {
          "internalType": "uint256",
          "name": "receivedTimestampMilliseconds",
          "type": "uint256"
        }
      ],
      "name": "validateTimestamp",
      "outputs": [],
      "stateMutability": "view",
      "type": "function"
    },
    {
      "inputs": [],
      "name": "version",
      "outputs": [
        {
          "internalType": "uint256",
          "name": "",
          "type": "uint256"
        }
      ],
      "stateMutability": "pure",
      "type": "function"
    }
  ],
  "transactionHash": "0x390db0c5af7c2140bcd0cc357c435e888e15dd6ef5ed69574926aecbab69b670",
  "args": [],
  "numDeployments": 1,
  "solcInputHash": "df3615f6cc74d71152d8ae7543401402",
  "bytecode": "0x608060405234801561001057600080fd5b5061287a806100206000396000f3fe608060405234801561001057600080fd5b50600436106102de5760003560e01c80638ec7c82111610186578063c274583a116100e3578063f34f73d811610097578063fba0315811610071578063fba03158146106bc578063fd1f4bef146106c4578063feaf968c146106eb57600080fd5b8063f34f73d81461063c578063f50b2efe146106a2578063f90c4924146106b557600080fd5b8063cbc33eb2116100c8578063cbc33eb214610427578063d13758171461062d578063d149c0d71461063557600080fd5b8063c274583a146105ce578063c83377601461060757600080fd5b8063aef2f1651161013a578063b24ebfcc1161011f578063b24ebfcc14610595578063bb1f29b7146105a8578063c14c9204146105bb57600080fd5b8063aef2f1651461054f578063b0f106b01461056457600080fd5b80639a6fc8f51161016b5780639a6fc8f5146104e1578063a8b940e61461052b578063ada114571461053c57600080fd5b80638ec7c821146104bb578063971b9c03146104ce57600080fd5b806355a547d51161023f5780636e3e0370116101f35780637a02bdf1116101cd5780637a02bdf1146104845780638129fc1c1461048c5780638c3b990b1461049457600080fd5b80636e3e0370146104275780637284e4161461043c578063796b89b91461047e57600080fd5b80636668316a116102245780636668316a146103de578063668a0f02146103f15780636dafaf6a1461041457600080fd5b806355a547d5146103b657806355d12458146103be57600080fd5b806344e02982116102965780634b6a9d811161027b5780634b6a9d81146102fe57806350d25bcd146103a757806354fd4d50146103af57600080fd5b806344e029821461038e57806347043b00146103a157600080fd5b806326bf15ff116102c757806326bf15ff14610325578063313ce567146103665780633ce142f51461037b57600080fd5b80631b2758ee146102e3578063245a7bfc146102fe575b600080fd5b6102eb6106f3565b6040519081526020015b60405180910390f35b305b60405173ffffffffffffffffffffffffffffffffffffffff90911681526020016102f5565b6103386103333660046123f0565b610715565b604080519384526fffffffffffffffffffffffffffffffff92831660208501529116908201526060016102f5565b60085b60405160ff90911681526020016102f5565b610369610389366004612412565b610808565b6102eb61039c366004612448565b610976565b30610300565b6102eb61099f565b60016102eb565b6102eb610a9d565b6103d16103cc366004612503565b610bf9565b6040516102f59190612599565b6102eb6103ec366004612448565b610c9a565b6103f9610cc8565b60405169ffffffffffffffffffff90911681526020016102f5565b6102eb610422366004612448565b610d83565b61043a6104353660046123f0565b610de9565b005b60408051808201909152601381527f52656473746f6e6520507269636520466565640000000000000000000000000060208201525b6040516102f591906125dd565b426102eb565b6102eb610e2a565b61043a610e4c565b7fc68d7f1ee07d8668991a8951e720010c9d44c2f11c06b5cac61fbc4083263938546102eb565b6102eb6104c9366004612448565b610fd5565b6103d16104dc366004612503565b610fe9565b6104f46104ef36600461264a565b61105f565b6040805169ffffffffffffffffffff968716815260208101959095528401929092526060830152909116608082015260a0016102f5565b61043a610539366004612412565b50565b61043a61054a366004612448565b6111de565b60408051603c815260b46020820152016102f5565b61056c6111f0565b604080516fffffffffffffffffffffffffffffffff9384168152929091166020830152016102f5565b6102eb6105a3366004612503565b61122e565b61043a6105b6366004612448565b611239565b61043a6105c9366004612448565b6112fc565b60408051808201909152601581527f72656473746f6e652d7072696d6172792d70726f6400000000000000000000006020820152610471565b7f55534454000000000000000000000000000000000000000000000000000000006102eb565b61033861133e565b60006102eb565b6102eb61064a3660046123f0565b60408051602080820194909452808201929092527f4dd0c77efa6f6d590c97573d8c70b714546e7311202ff7c11c484cc841d91bfc606080840191909152815180840390910181526080909201905280519101205490565b61043a6106b0366004612448565b611387565b6002610369565b6103d16113de565b7f3d01e4d77237ea0f771f1786da4d4ff757fcba6a92933aa53b1dcef2d6bd6fe2546102eb565b6104f4611443565b60006106fd6111f0565b6fffffffffffffffffffffffffffffffff1692915050565b60008060006107427fc68d7f1ee07d8668991a8951e720010c9d44c2f11c06b5cac61fbc40832639385490565b84118061074d575083155b1561078c576040517ff8ae8137000000000000000000000000000000000000000000000000000000008152600481018590526024015b60405180910390fd5b6040805160208082018890528183018790527f4dd0c77efa6f6d590c97573d8c70b714546e7311202ff7c11c484cc841d91bfc60608084019190915283518084039091018152608090920190925280519101205492506107ec8584610de9565b60006107f785610fd5565b9396608085901c9650939450505050565b600073ffffffffffffffffffffffffffffffffffffffff8216738bb8f32df04c8b654987daaed53d6b6091e3b7740361084357506000919050565b73ffffffffffffffffffffffffffffffffffffffff821673deb22f54738d54976c4c0fe5ce6d408e40d884990361087c57506001919050565b73ffffffffffffffffffffffffffffffffffffffff82167351ce04be4b3e32572c4ec9135221d0691ba7d202036108b557506002919050565b73ffffffffffffffffffffffffffffffffffffffff821673dd682daec5a90dd295d14da4b0bec9281017b5be036108ee57506003919050565b73ffffffffffffffffffffffffffffffffffffffff8216739c5ae89c4af6aa32ce58588dbaf90d18a855b6de0361092757506004919050565b6040517fec459bc000000000000000000000000000000000000000000000000000000000815273ffffffffffffffffffffffffffffffffffffffff83166004820152602401610783565b919050565b600061098182610d83565b50600061098d83610c9a565b90506109998382610de9565b92915050565b6040517f44e029820000000000000000000000000000000000000000000000000000000081527f555344540000000000000000000000000000000000000000000000000000000060048201819052600091829030906344e0298290602401602060405180830381865afa158015610a1a573d6000803e3d6000fd5b505050506040513d601f19601f82011682018060405250810190610a3e9190612676565b90507f7fffffffffffffffffffffffffffffffffffffffffffffffffffffffffffffff811115610999576040517feccac09b00000000000000000000000000000000000000000000000000000000815260048101829052602401610783565b600080610aa86114e0565b90506000610ab582611615565b61ffff16905080600003610af5576040517f8552ff3c00000000000000000000000000000000000000000000000000000000815260040160405180910390fd5b610b006002836126be565b915060005b81811015610bf3576000610b1884611668565b9050600080610b286068876126be565b90506000610b3682366126d1565b9050803592508265ffffffffffff16600003610b7e576040517f336dc9d000000000000000000000000000000000000000000000000000000000815260040160405180910390fd5b87600003610b96578265ffffffffffff169750610bd7565b878365ffffffffffff1614610bd7576040517fd9d1f46500000000000000000000000000000000000000000000000000000000815260040160405180910390fd5b610be184886126be565b96505060019093019250610b05915050565b50505090565b6060815167ffffffffffffffff811115610c1557610c15612461565b604051908082528060200260200182016040528015610c3e578160200160208202803683370190505b50905060005b8251811015610c9457610c6f838281518110610c6257610c626126e4565b6020026020010151610c9a565b828281518110610c8157610c816126e4565b6020908102919091010152600101610c44565b50919050565b60006109998261064a7fc68d7f1ee07d8668991a8951e720010c9d44c2f11c06b5cac61fbc40832639385490565b6000803073ffffffffffffffffffffffffffffffffffffffff16638c3b990b6040518163ffffffff1660e01b8152600401602060405180830381865afa158015610d16573d6000803e3d6000fd5b505050506040513d601f19601f82011682018060405250810190610d3a9190612676565b905069ffffffffffffffffffff811115610971576040517f1e93e47c00000000000000000000000000000000000000000000000000000000815260048101829052602401610783565b60007f55534454000000000000000000000000000000000000000000000000000000008203610db457506000919050565b6040517f9382940300000000000000000000000000000000000000000000000000000000815260048101839052602401610783565b80600003610e26576040517f0565ce2a00000000000000000000000000000000000000000000000000000000815260048101839052602401610783565b5050565b6000610e346111f0565b506fffffffffffffffffffffffffffffffff16919050565b600054610100900460ff1615808015610e6c5750600054600160ff909116105b80610e865750303b158015610e86575060005460ff166001145b610f12576040517f08c379a000000000000000000000000000000000000000000000000000000000815260206004820152602e60248201527f496e697469616c697a61626c653a20636f6e747261637420697320616c72656160448201527f647920696e697469616c697a65640000000000000000000000000000000000006064820152608401610783565b600080547fffffffffffffffffffffffffffffffffffffffffffffffffffffffffffffff001660011790558015610f7057600080547fffffffffffffffffffffffffffffffffffffffffffffffffffffffffffff00ff166101001790555b801561053957600080547fffffffffffffffffffffffffffffffffffffffffffffffffffffffffffff00ff169055604051600181527f7f26b83ff96e1f2b6a682f133852f6798a09c465da95921460cefb38474024989060200160405180910390a150565b600080610fe1836116a4565b549392505050565b60606000610ff683610bf9565b905060005b8351811015611058576000848281518110611018576110186126e4565b6020026020010151905061102b81610d83565b5061104f81848481518110611042576110426126e4565b6020026020010151610de9565b50600101610ffb565b5092915050565b6000808080808080803073ffffffffffffffffffffffffffffffffffffffff166326bf15ff7f55534454000000000000000000000000000000000000000000000000000000006040517fffffffff0000000000000000000000000000000000000000000000000000000060e084901b168152600481019190915269ffffffffffffffffffff8c166024820152604401606060405180830381865afa15801561110b573d6000803e3d6000fd5b505050506040513d601f19601f8201168201806040525081019061112f9190612733565b9250925092508897507f7fffffffffffffffffffffffffffffffffffffffffffffffffffffffffffffff831115611195576040517feccac09b00000000000000000000000000000000000000000000000000000000815260048101849052602401610783565b8296506103e8826111a6919061279e565b6fffffffffffffffffffffffffffffffff169550806fffffffffffffffffffffffffffffffff16945088935050505091939590929450565b6111e781611700565b61053981611239565b60008061122661121e7f3d01e4d77237ea0f771f1786da4d4ff757fcba6a92933aa53b1dcef2d6bd6fe25490565b608081901c91565b915091509091565b60006109998261174f565b60006112476103e8836127cd565b9050603c60b442838110156112a8578261126182866126d1565b11156112a3576040517fb6b0916d0000000000000000000000000000000000000000000000000000000081526004810185905260248101829052604401610783565b6112f5565b816112b385836126d1565b11156112f5576040517f0321d0b50000000000000000000000000000000000000000000000000000000081526004810185905260248101829052604401610783565b5050505050565b61130461175a565b61130d816111de565b611316816117bd565b60006113206113de565b9050600061132d82611883565b9050611339828261188e565b505050565b600080600061136b7fc68d7f1ee07d8668991a8951e720010c9d44c2f11c06b5cac61fbc40832639385490565b9250600061137884610fd5565b9394608085901c949350915050565b3361138f5750565b6000611399610e2a565b9050808214610e26576040517f6bc11ec50000000000000000000000000000000000000000000000000000000081526004810182905260248101839052604401610783565b604080516001808252818301909252606091602080830190803683370190505090507f555344540000000000000000000000000000000000000000000000000000000081600081518110611434576114346126e4565b60200260200101818152505090565b6000806000806000611453610cc8565b945061145d61099f565b935060003073ffffffffffffffffffffffffffffffffffffffff16631b2758ee6040518163ffffffff1660e01b8152600401602060405180830381865afa1580156114ac573d6000803e3d6000fd5b505050506040513d601f19601f820116820180604052508101906114d09190612676565b9596949594859450879350915050565b60006602ed57011e00007fffffffffffffffffffffffffffffffffffffffffffffffffffffffffffffffe036013581161480611548576040517fe7764c9e00000000000000000000000000000000000000000000000000000000815260040160405180910390fd5b60003660291115611585576040517f5796f78a00000000000000000000000000000000000000000000000000000000815260040160405180910390fd5b507fffffffffffffffffffffffffffffffffffffffffffffffffffffffffffffffd7360135600060096115be600362ffffff85166126be565b6115c891906126be565b9050366115d66002836126be565b111561160e576040517fc30a7bd700000000000000000000000000000000000000000000000000000000815260040160405180910390fd5b9392505050565b6000806116236020846126be565b90503681111561165f576040517f5796f78a00000000000000000000000000000000000000000000000000000000815260040160405180910390fd5b36033592915050565b600080600061167684611905565b9092509050604e6116888260206126be565b61169290846127e1565b61169c91906126be565b949350505050565b6040516000906116e39083907f207e00944d909d1224f0c253d58489121d736649f8393199f55eecf4f0cf3eb090602001918252602082015260400190565b604051602081830303815290604052805190602001209050919050565b600061170a610e2a565b9050808211610e26576040517fef05deba0000000000000000000000000000000000000000000000000000000081526004810183905260248101829052604401610783565b60006109998261195c565b4260006117656106f3565b9050600061177381836126be565b831015611339576040517f83b3f5c4000000000000000000000000000000000000000000000000000000008152600481018490526024810183905260448101829052606401610783565b426fffffffffffffffffffffffffffffffff81111561180b576040517f70db678f00000000000000000000000000000000000000000000000000000000815260048101829052602401610783565b6fffffffffffffffffffffffffffffffff821115611858576040517f5cbfa8a100000000000000000000000000000000000000000000000000000000815260048101839052602401610783565b60809190911b177f3d01e4d77237ea0f771f1786da4d4ff757fcba6a92933aa53b1dcef2d6bd6fe255565b606061099982611a40565b815160011415806118a157508051600114155b156118d8576040517fbed42bab00000000000000000000000000000000000000000000000000000000815260040160405180910390fd5b6118e28282611bef565b610e26816000815181106118f8576118f86126e4565b6020026020010151611c4f565b6000808080806119166041876126be565b9050600061192f6119286020846126be565b3690611cb0565b803594509050611940816003611cb0565b62ffffff9490941697933563ffffffff16965092945050505050565b60008151600003611999576040517f9e198af900000000000000000000000000000000000000000000000000000000815260040160405180910390fd5b6119a282611cbc565b6000600283516119b291906127cd565b9050600283516119c291906127f8565b600003611a1e576000611a11846119da6001856126d1565b815181106119ea576119ea6126e4565b6020026020010151858481518110611a0457611a046126e4565b6020026020010151611d0a565b905061169c6002826127cd565b828181518110611a3057611a306126e4565b6020026020010151915050919050565b60606000825167ffffffffffffffff811115611a5e57611a5e612461565b604051908082528060200260200182016040528015611a87578160200160208202803683370190505b5090506000835167ffffffffffffffff811115611aa657611aa6612461565b604051908082528060200260200182016040528015611acf578160200160208202803683370190505b5090506000845167ffffffffffffffff811115611aee57611aee612461565b604051908082528060200260200182016040528015611b2157816020015b6060815260200190600190039081611b0c5790505b50905060005b8551811015611b7357604080516002808252606082018352909160208301908036833701905050828281518110611b6057611b606126e4565b6020908102919091010152600101611b27565b506000611b7e6114e0565b90506000611b8b82611615565b61ffff169050611b9c6002836126be565b60405190925060005b82811015611bd8576000611bbc8a89898989611d16565b9050611bc881866126be565b6040849052945050600101611ba5565b50611be38487611fb9565b98975050505050505050565b611bf76120e1565b611bff612133565b60005b825181101561133957611c47838281518110611c2057611c206126e4565b6020026020010151838381518110611c3a57611c3a6126e4565b602002602001015161219e565b600101611c02565b7fc68d7f1ee07d8668991a8951e720010c9d44c2f11c06b5cac61fbc408326393854611c7a82612239565b6040514281527f0559884fd3a460db3073b7fc896cc77986f16e378210ded43186175bf646fc5f9060200160405180910390a350565b600061160e82846126d1565b8051602082016020820281019150805b82811015611d0457815b81811015611cfb578151815180821015611cf1578084528183525b5050602001611cd6565b50602001611ccc565b50505050565b600061160e82846126be565b600080600080611d2585611905565b909250905060008080606081600d611d48611d416020896126be565b89906122ef565b611d5291906126be565b90506000611d6461192860688d6126be565b90506000611d8183611d7760418f6126be565b61192891906126be565b9050611d8d8382611da0565b9350826020850120945081359650611de2565b604080518381526020818501810190925260009101838382377fffffffffffffffffffffffffffffffffffffffffffffffffffffffffffffffe0019392505050565b611df38765ffffffffffff16611387565b611e0785611e0260418f6126be565b6122fb565b9550611e1286610808565b60ff1699505050505050505060008060005b84811015611f8657611e37888583612391565b909350915060005b8c51811015611f7d578c8181518110611e5a57611e5a6126e4565b60200260200101518403611f755760008b8281518110611e7c57611e7c6126e4565b60200260200101519050611e9581896001901b16151590565b158015611ebe5750600260ff168d8381518110611eb457611eb46126e4565b6020026020010151105b15611f6f578c8281518110611ed557611ed56126e4565b602002602001018051809190611eea9061280c565b81525050838b8381518110611f0157611f016126e4565b602002602001015160018f8581518110611f1d57611f1d6126e4565b6020026020010151611f2f91906126d1565b81518110611f3f57611f3f6126e4565b60209081029190910101526001881b81178c8381518110611f6257611f626126e4565b6020026020010181815250505b50611f7d565b600101611e3f565b50600101611e24565b50505081602082611f9791906126be565b611fa191906127e1565b611fac90604e6126be565b9998505050505050505050565b60606000835167ffffffffffffffff811115611fd757611fd7612461565b604051908082528060200260200182016040528015612000578160200160208202803683370190505b509050600260005b85518110156120d75781858281518110612024576120246126e4565b6020026020010151101561208a57848181518110612044576120446126e4565b6020026020010151826040517f2b13aef5000000000000000000000000000000000000000000000000000000008152600401610783929190918252602082015260400190565b60006120ae8783815181106120a1576120a16126e4565b602002602001015161122e565b9050808483815181106120c3576120c36126e4565b602090810291909101015250600101612008565b5090949350505050565b600061210b7fc68d7f1ee07d8668991a8951e720010c9d44c2f11c06b5cac61fbc40832639385490565b6001017fc68d7f1ee07d8668991a8951e720010c9d44c2f11c06b5cac61fbc40832639385550565b600061215d7f3d01e4d77237ea0f771f1786da4d4ff757fcba6a92933aa53b1dcef2d6bd6fe25490565b905060006121897fc68d7f1ee07d8668991a8951e720010c9d44c2f11c06b5cac61fbc40832639385490565b90506000612196826116a4565b929092555050565b6121a88282610de9565b6000612231836121d67fc68d7f1ee07d8668991a8951e720010c9d44c2f11c06b5cac61fbc40832639385490565b60408051602081018490529081018290527f4dd0c77efa6f6d590c97573d8c70b714546e7311202ff7c11c484cc841d91bfc606082015260009060800160405160208183030381529060405280519060200120905092915050565b919091555050565b60007f7fffffffffffffffffffffffffffffffffffffffffffffffffffffffffffffff8211156122eb576040517f08c379a000000000000000000000000000000000000000000000000000000000815260206004820152602860248201527f53616665436173743a2076616c756520646f65736e27742066697420696e206160448201527f6e20696e743235360000000000000000000000000000000000000000000000006064820152608401610783565b5090565b600061160e82846127e1565b60408051600080825260208083018085528690523685900380850135831a948401859052803560608501819052910135608084018190529193909260019060a0016020604051602081039080840390855afa15801561235e573d6000803e3d6000fd5b50506040517fffffffffffffffffffffffffffffffffffffffffffffffffffffffffffffffe00151979650505050505050565b600080806123a0604e876126be565b905060006123cd6123c66123b56020896126be565b6123c08860016126be565b906122ef565b8390611d0a565b905060006123db3683611cb0565b80359960209091013598509650505050505050565b6000806040838503121561240357600080fd5b50508035926020909101359150565b60006020828403121561242457600080fd5b813573ffffffffffffffffffffffffffffffffffffffff8116811461160e57600080fd5b60006020828403121561245a57600080fd5b5035919050565b7f4e487b7100000000000000000000000000000000000000000000000000000000600052604160045260246000fd5b604051601f82017fffffffffffffffffffffffffffffffffffffffffffffffffffffffffffffffe016810167ffffffffffffffff811182821017156124d7576124d7612461565b604052919050565b600067ffffffffffffffff8211156124f9576124f9612461565b5060051b60200190565b6000602080838503121561251657600080fd5b823567ffffffffffffffff81111561252d57600080fd5b8301601f8101851361253e57600080fd5b803561255161254c826124df565b612490565b81815260059190911b8201830190838101908783111561257057600080fd5b928401925b8284101561258e57833582529284019290840190612575565b979650505050505050565b6020808252825182820181905260009190848201906040850190845b818110156125d1578351835292840192918401916001016125b5565b50909695505050505050565b60006020808352835180602085015260005b8181101561260b578581018301518582016040015282016125ef565b5060006040828601015260407fffffffffffffffffffffffffffffffffffffffffffffffffffffffffffffffe0601f8301168501019250505092915050565b60006020828403121561265c57600080fd5b813569ffffffffffffffffffff8116811461160e57600080fd5b60006020828403121561268857600080fd5b5051919050565b7f4e487b7100000000000000000000000000000000000000000000000000000000600052601160045260246000fd5b808201808211156109995761099961268f565b818103818111156109995761099961268f565b7f4e487b7100000000000000000000000000000000000000000000000000000000600052603260045260246000fd5b80516fffffffffffffffffffffffffffffffff8116811461097157600080fd5b60008060006060848603121561274857600080fd5b8351925061275860208501612713565b915061276660408501612713565b90509250925092565b7f4e487b7100000000000000000000000000000000000000000000000000000000600052601260045260246000fd5b60006fffffffffffffffffffffffffffffffff808416806127c1576127c161276f565b92169190910492915050565b6000826127dc576127dc61276f565b500490565b80820281158282048414176109995761099961268f565b6000826128075761280761276f565b500690565b60007fffffffffffffffffffffffffffffffffffffffffffffffffffffffffffffffff820361283d5761283d61268f565b506001019056fea264697066735822122051d47c8aa46ec7c947246da0683d6133ebb988d1017c14ea14242f2c1ea1e44c64736f6c63430008170033",
  "devdoc": {
    "events": {
      "Initialized(uint8)": {
        "details": "Triggered when the contract has been initialized or reinitialized."
      }
    },
    "kind": "dev",
    "methods": {
      "aggregateValues(uint256[])": {
        "details": "This function may be overridden by the child consumer contract. It should aggregate values from different signers to a single uint value. By default, it calculates the median value",
        "params": {
          "values": "An array of uint256 values from different signers"
        },
        "returns": {
          "_0": "Result of the aggregation in the form of a single number"
        }
      },
      "decimals()": {
        "details": "By default, RedStone uses 8 decimals for data feeds",
        "returns": {
          "_0": "decimals The number of decimals in the price feed values"
        }
      },
      "description()": {
        "returns": {
          "_0": "description"
        }
      },
      "getAllowedTimestampDiffsInSeconds()": {
        "details": "Helpful function for getting values for timestamp validation",
        "returns": {
          "maxDataAheadSeconds": "Max allowed number of seconds ahead of block.timrstamp",
          "maxDataDelaySeconds": "Max allowed number of seconds for data delay"
        }
      },
      "getBlockTimestamp()": {
        "details": "This function can be overriden, e.g. to use block.number instead of block.timestamp It can be useful in some L2 chains, as sometimes their different blocks can have the same timestamp",
        "returns": {
          "_0": "timestamp Timestamp or Block number or any other number that can identify time in the context of the given blockchain"
        }
      },
      "getBlockTimestampFromLatestUpdate()": {
        "returns": {
          "blockTimestamp": "The block timestamp of the latest successful update"
        }
      },
      "getDataFeedId()": {
        "returns": {
          "_0": "dataFeedId The identifier of the data feed"
        }
      },
      "getDataFeedIds()": {
        "details": "this function must be implemented in derived contracts",
        "returns": {
          "dataFeedIds": "An array of data feed identifiers"
        }
      },
      "getDataFeedIndex(bytes32)": {
        "details": "This function can (and should) be overriden to reduce gas costs of other functions",
        "params": {
          "dataFeedId": "The data feed identifier"
        },
        "returns": {
          "_0": "index The index of the data feed"
        }
      },
      "getDataServiceId()": {
        "details": "This function must be implemented by the child consumer contract. It should return dataServiceId which DataServiceWrapper will use if not provided explicitly . If not overridden, value will always have to be provided explicitly in DataServiceWrapper.",
        "returns": {
          "_0": "dataServiceId being consumed by contract"
        }
      },
      "getDataTimestampFromLatestUpdate()": {
        "details": "It's virtual, because its implementation can sometimes be different (e.g. SinglePriceFeedAdapterWithClearing)",
        "returns": {
          "lastDataTimestamp": "Timestamp of the latest reported data packages"
        }
      },
      "getLatestRoundId()": {
        "returns": {
          "latestRoundId": "latestRoundId"
        }
      },
      "getLatestRoundParams()": {
        "returns": {
          "latestRoundBlockTimestamp": "latestRoundBlockTimestamp",
          "latestRoundDataTimestamp": "latestRoundDataTimestamp",
          "latestRoundId": "latestRoundId"
        }
      },
      "getMinIntervalBetweenUpdates()": {
        "details": "You can override this function to change the required interval between udpates. Please do not set it to 0, as it may open many attack vectors",
        "returns": {
          "_0": "interval The required interval between updates"
        }
      },
      "getPackedTimestampsForRound(uint256)": {
        "params": {
          "roundId": "Requested round number"
        },
        "returns": {
          "roundTimestamps": "roundTimestamps"
        }
      },
      "getPackedTimestampsFromLatestUpdate()": {
        "details": "Returns 2 timestamps packed into a single uint256 number",
        "returns": {
          "packedTimestamps": "a single uin256 number with 2 timestamps"
        }
      },
      "getRoundData(uint80)": {
        "params": {
          "roundId": "Requested round identifier"
        }
      },
      "getRoundDataFromAdapter(bytes32,uint256)": {
        "params": {
          "dataFeedId": "Requested data feed",
          "roundId": "Requested round identifier"
        },
        "returns": {
          "dataFeedValue": "dataFeedValue",
          "roundBlockTimestamp": "roundBlockTimestamp",
          "roundDataTimestamp": "roundDataTimestamp"
        }
      },
      "getTimestampsFromLatestUpdate()": {
        "returns": {
          "blockTimestamp": "timestamp of the block when the update has happened",
          "dataTimestamp": "timestamp (usually in milliseconds) from the signed data packages"
        }
      },
      "getUniqueSignersThreshold()": {
        "details": "This function should be overridden by the child consumer contract.",
        "returns": {
          "_0": "The minimum required value of unique authorised signers"
        }
      },
      "getValueForDataFeed(bytes32)": {
        "params": {
          "dataFeedId": "The identifier of the requested data feed"
        },
        "returns": {
          "_0": "value The latest value of the given data feed"
        }
      },
      "getValueForDataFeedAndRound(bytes32,uint256)": {
        "details": "[HIGH RISK] Returns value for the requested data feed from the given round without validation.",
        "params": {
          "dataFeedId": "The data feed identifier",
          "roundId": "The number of the requested round"
        },
        "returns": {
          "dataFeedValue": "value for the requested data feed from the given round"
        }
      },
      "getValueForDataFeedUnsafe(bytes32)": {
        "details": "[HIGH RISK] Returns the value for a given data feed from the latest round without validation. Important! Using this function instead of `getValueForDataFeed` may cause significant risk for your smart contracts",
        "params": {
          "dataFeedId": "The data feed identifier"
        },
        "returns": {
          "dataFeedValue": "Unvalidated value of the latest successful update"
        }
      },
      "getValuesForDataFeeds(bytes32[])": {
        "params": {
          "dataFeedIds": "The array of identifiers for the requested feeds"
        },
        "returns": {
          "_0": "values Values of the requested data feeds in the corresponding order"
        }
      },
      "getValuesForDataFeedsUnsafe(bytes32[])": {
        "params": {
          "requestedDataFeedIds": "The array of identifiers for the requested feeds"
        },
        "returns": {
          "values": "Unvalidated values of the requested data feeds in the corresponding order"
        }
      },
      "latestAnswer()": {
        "returns": {
          "_0": "latestAnswer The latest successfully reported value"
        }
      },
      "latestRound()": {
        "returns": {
          "_0": "latestRound The number of the latest successful round"
        }
      },
      "latestRoundData()": {
        "details": "It uses few helpful functions to abstract logic of getting latest round id and value",
        "returns": {
          "answer": "The latest reported value",
          "answeredInRound": "The number of the latest round",
          "roundId": "The number of the latest round",
          "startedAt": "Block timestamp when the latest successful round started",
          "updatedAt": "Block timestamp of the latest successful round"
        }
      },
      "requireAuthorisedUpdater(address)": {
        "details": "This function should revert if msg.sender is not allowed to update data feed values",
        "params": {
          "updater": "The address of the proposed updater"
        }
      },
      "updateDataFeedsValues(uint256)": {
        "details": "This function requires an attached redstone payload to the transaction calldata. It also requires each data package to have exactly the same timestamp",
        "params": {
          "dataPackagesTimestamp": "Timestamp of each signed data package in the redstone payload"
        }
      },
      "validateDataFeedValueOnRead(bytes32,uint256)": {
        "details": "Reverts if proposed value for the proposed data feed id is invalid Is called on every NOT *unsafe method which reads dataFeed By default, it just checks if the value is not equal to 0, but it can be extended",
        "params": {
          "dataFeedId": "The data feed identifier",
          "valueForDataFeed": "Proposed value for the data feed"
        }
      },
      "validateDataFeedValueOnWrite(bytes32,uint256)": {
        "details": "Reverts if proposed value for the proposed data feed id is invalid Is called on every NOT *unsafe method which writes dataFeed By default, it does nothing",
        "params": {
          "dataFeedId": "The data feed identifier",
          "valueForDataFeed": "Proposed value for the data feed"
        }
      },
      "validateDataPackagesTimestampOnce(uint256)": {
        "params": {
          "dataPackagesTimestamp": "The proposed timestamp (usually in milliseconds)"
        }
      },
      "validateProposedDataPackagesTimestamp(uint256)": {
        "params": {
          "dataPackagesTimestamp": "The proposed timestamp (usually in milliseconds)"
        }
      },
      "validateTimestamp(uint256)": {
        "details": "Note! This function is not called directly, it's called for each data package    . in redstone payload and just verifies if each data package has the same timestamp as the one that was saved in the storage",
        "params": {
          "receivedTimestampMilliseconds": "Timestamp from a data package"
        }
      },
      "version()": {
        "details": "Currently it has no specific motivation and was added only to be compatible with the Chainlink interface",
        "returns": {
          "_0": "version"
        }
      }
    },
    "version": 1
  },
  "userdoc": {
    "kind": "user",
    "methods": {
      "decimals()": {
        "notice": "Returns the number of decimals for the price feed"
      },
      "description()": {
        "notice": "Description of the Price Feed"
      },
      "getBlockTimestampFromLatestUpdate()": {
        "notice": "Returns block timestamp of the latest successful update"
      },
      "getDataFeedId()": {
        "notice": "Returns data feed identifier for the PriceFeed contract"
      },
      "getDataFeedIds()": {
        "notice": "Returns identifiers of all data feeds supported by the Adapter contract"
      },
      "getDataFeedIndex(bytes32)": {
        "notice": "Returns the unique index of the given data feed"
      },
      "getDataTimestampFromLatestUpdate()": {
        "notice": "Returns data timestamp from the latest update"
      },
      "getLatestRoundId()": {
        "notice": "Returns latest successful round number"
      },
      "getLatestRoundParams()": {
        "notice": "Returns data from the latest successful round"
      },
      "getMinIntervalBetweenUpdates()": {
        "notice": "Returns minimal required interval (usually in seconds) between subsequent updates"
      },
      "getPackedTimestampsForRound(uint256)": {
        "notice": "Returns timestamps related to the given round packed into one number"
      },
      "getRoundData(uint80)": {
        "notice": "Returns details for the given round"
      },
      "getRoundDataFromAdapter(bytes32,uint256)": {
        "notice": "Returns details for the given round and data feed"
      },
      "getTimestampsFromLatestUpdate()": {
        "notice": "Returns timestamps of the latest successful update"
      },
      "getValueForDataFeed(bytes32)": {
        "notice": "Returns the latest properly reported value of the data feed"
      },
      "getValuesForDataFeeds(bytes32[])": {
        "notice": "Returns the latest properly reported values for several data feeds"
      },
      "getValuesForDataFeedsUnsafe(bytes32[])": {
        "notice": "[HIGH RISK] Returns the latest properly reported values for several data feeds without validation Important! Using this function instead of `getValuesForDataFeeds` may cause significant risk for your smart contracts"
      },
      "latestAnswer()": {
        "notice": "Old Chainlink function for getting the latest successfully reported value"
      },
      "latestRound()": {
        "notice": "Old Chainlink function for getting the number of latest round"
      },
      "latestRoundData()": {
        "notice": "Returns details of the latest successful update round"
      },
      "requireAuthorisedUpdater(address)": {
        "notice": "Reverts if the updater is not authorised"
      },
      "updateDataFeedsValues(uint256)": {
        "notice": "Updates values of all data feeds supported by the Adapter contract"
      },
      "validateDataPackagesTimestampOnce(uint256)": {
        "notice": "Reverts if the proposed timestamp of data packages it too old or too new comparing to the current block timestamp"
      },
      "validateProposedDataPackagesTimestamp(uint256)": {
        "notice": "Reverts if the proposed timestamp of data packages it too old or too new comparing to the block.timestamp. It also ensures that the proposed timestamp is newer Then the one from the previous update"
      },
      "version()": {
        "notice": "Version of the Price Feed"
      }
    },
    "version": 1
  },
  "storageLayout": {
    "storage": [
      {
        "astId": 52,
        "contract": "contracts/adapters/RedstonePriceFeedWithRoundsUSDT.sol:RedstonePriceFeedWithRoundsUSDT",
        "label": "_initialized",
        "offset": 0,
        "slot": "0",
        "type": "t_uint8"
      },
      {
        "astId": 55,
        "contract": "contracts/adapters/RedstonePriceFeedWithRoundsUSDT.sol:RedstonePriceFeedWithRoundsUSDT",
        "label": "_initializing",
        "offset": 1,
        "slot": "0",
        "type": "t_bool"
      }
    ],
    "types": {
      "t_bool": {
        "encoding": "inplace",
        "label": "bool",
        "numberOfBytes": "1"
      },
      "t_uint8": {
        "encoding": "inplace",
        "label": "uint8",
        "numberOfBytes": "1"
      }
    }
  }
}